:100000000C94EA000C9412010C9412010C9412014D
:100010000C9412010C9412010C9412010C94120114
:100020000C9412010C9412010C94F7050C946606C2
:100030000C9412010C9412010C9412010C941201F4
:100040000C9412010C9412010C9412010C941201E4
:100050000C9412010C9412010C9412010C94AD0535
:100060000C9412010C9412010C9412010C941201C4
:100070000C9412010C9412010C9412010C941201B4
:100080000C9412010C9412010C9412010C941201A4
:100090000C9412010C9412010C9412010C94120194
:1000A0000C9412010C9412010C9412014572726F9F
:1000B0007220696E6974696C697A696E672050573D
:1000C0004D2032354B687A004572726F7220696E2E
:1000D0006974696C697A696E672050574D00537472
:1000E00061727475702E2E2E00080B000202020140
:1000F00000090400000102020000052400100105AF
:1001000024010101042402060524060001070581DB
:100110000310004009040100020A00000007050264
:100120000240000007058302400000040309041296
:10013000010002EF0201404123418000010102035E
:100140000141726475696E6F204C4C4300417264CA
:1001500075696E6F2059756E000000000200090F6E
:100160000000030401000C0000000000000000007B
:100170000000000000000000000000002500280032
:100180002B002E00310000000000240027002A0070
:100190002D003000040404040403040502020202DA
:1001A0000403020202020606060606060404020210
:1001B00002040404080201104080401020408040E6
:1001C00080080204018040201002011080102040AD
:1001D0004020980811241FBECFEFDAE0DEBFCDBF6C
:1001E00011E0A0E0B1E0ECE3F7E102C005900D9270
:1001F000A233B107D9F721E0A2E3B1E001C01D921B
:10020000AB3AB207E1F710E0CAEED0E004C02197A4
:10021000FE010E94910BC93ED107C9F70E94C10897
:100220000C949C0B0C94000090E0FC01ED54FE4FEC
:1002300024918C569E4FFC018491882399F090E084
:10024000880F991FFC01EA57FE4FA591B491FC015C
:10025000E858FE4F859194918FB7F894EC91E22B7A
:10026000EC938FBF0895FC0180915001882311F118
:100270003FB7F89482E08093E9002091F200822F4A
:1002800090E01816190614F481E090E0882339F004
:10029000289844E640934F014091F1004083222387
:1002A00039F02091F200211103C02BE62093E800E1
:1002B0003FBF08958FEF9FEF08952FB7F89483E025
:1002C0008093E9009091E800892F807295FF04C027
:1002D0009091F20080E4891B2FBF0895809147011F
:1002E00081110DC082E08093430184E0809344013A
:1002F000109246011092450181E08093470183E40A
:1003000091E00895282F30E0F901E75AFE4F9491CB
:10031000F901ED54FE4F84912C563E4FF901249182
:10032000222309F430C09923E9F091509F30D0F492
:10033000E92FF0E0E256FE4F0C94910BCC01D00176
:10034000AD01C401C801B201B201B201D301D901AA
:10035000DD01E101E701B201EB01909180009F779F
:1003600090938000E22FF0E0EE0FFF1FE858FE4F61
:10037000A591B4919FB7F894EC91611132C080952A
:100380008E238C939FBF0895909180009F7DE8CF2E
:1003900090918000977FE4CF94B59F7794BDE2CF92
:1003A00094B59F7DFBCF909190009F7790939000A4
:1003B000D9CF909190009F7DF9CF90919000977F39
:1003C000F5CF9091C0009F779093C000CBCF9091D4
:1003D000C0009F7DF9CF9091C200977F9093C2009B
:1003E000C1CF8E2BCECF3FB7F89480913F01909133
:1003F0004001A0914101B091420126B5A89B05C0E2
:100400002F3F19F00196A11DB11D3FBFBA2FA92F93
:10041000982F8827BC01CD01620F711D811D911D90
:1004200042E0660F771F881F991F4A95D1F70895FC
:100430008F929F92AF92BF92CF92DF92EF92FF92F4
:100440004B015C010E94F3016B017C010E94F301EE
:100450006C197D098E099F09683E734081059105DD
:10046000A8F321E0821A9108A108B10888EEC80E0D
:1004700083E0D81EE11CF11C81149104A104B10495
:1004800029F7FF90EF90DF90CF90BF90AF909F90B3
:100490008F9008954091340150913501209132019F
:1004A0003091330142175307B4F49091E8009570EE
:1004B000E1F39091E80092FD19C08093F1008091E2
:1004C00034019091350101968F739927892B19F486
:1004D0008EEF8093E8008091340190913501019670
:1004E000909335018093340181E0089580E0089570
:1004F000EF92FF920F931F93CF93DF93F82E192F54
:10050000E62E042F81E0860F880F0E944A0283E0C6
:100510000E944A02CF2DD12FEC0EFD2EF11CCE15DC
:10052000DF05B9F007FF13C0FE0184910E944A0263
:10053000182F80E00E944A02812321968111EFCF7B
:10054000DF91CF911F910F91FF90EF9008958881D7
:10055000EDCF81E0F5CFDF92EF92FF920F931F93E3
:10056000CF93DF93D82E8A01EB017B01E40EF51EB9
:10057000CE15DF0559F0D7FE12C0FE0184910E940E
:100580004A0221968111F4CF0FEF1FEFC801DF91CE
:10059000CF911F910F91FF90EF90DF900895888188
:1005A000EECF0F931F93CF93DF931F92CDB7DEB79C
:1005B00082E0898342E450E069EE70E080E80E94C6
:1005C000AB020E946E01DC0112960D911C91011587
:1005D000110589F0D801ED91FC910280F381E02DA5
:1005E000BE016F5F7F4FC801099597FD04C0F801F8
:1005F00000851185ECCF89810F90DF91CF911F91FC
:100600000F910895615030F02091F100FC0120839A
:100610000196F8CF289884E680934F0108958F9231
:100620009F92AF92BF92CF92DF92EF92FF920F9381
:100630001F93CF93DF936C017B018A0180910B01A3
:10064000882309F45CC080915001882309F457C0C5
:100650008091380180FF05C08091E0008260809326
:10066000E000E801B12C8AEFA82E93E0892E2AE35E
:10067000922E209711F4BB20D9F10E945D018111C7
:100680000AC0AA94AA20D9F161E070E080E090E06D
:100690000E941802EECF8C171D0611F00CF08C2F63
:1006A0009FB7F8948092E9002091E80025FD02C0F0
:1006B0009FBFDFCF282F30E0C21BD30BF701815043
:1006C00020F041914093F100FACFE20EF31EBB20DF
:1006D00021F09092E800B12CEBCF8091E80085FDED
:1006E000E7CF9092E800BB24B394209709F3F3CFAF
:1006F0005D9884E680933901101611063CF081E084
:1007000090E0F6019383828310E000E0C801DF915E
:10071000CF911F910F91FF90EF90DF90CF90BF90FE
:10072000AF909F908F900895CF93DF931F92CDB796
:10073000DEB76983DC01ED91FC910280F381E02D4D
:1007400041E050E0BE016F5F7F4F09950F90DF9150
:10075000CF9108950F931F93CF93DF938C01D0E037
:10076000C0E0F801EC0FFD1F6491662341F081E5C4
:1007700091E00E949403892B11F02196F2CFCE01D3
:10078000DF91CF911F910F91089583E08093E9004D
:100790008091F200882319F08AE38093E80008959D
:1007A0000E945D0190E00895CF93DF931F92CDB733
:1007B000DEB7FC018485958597FD08C02FEF3FEFDC
:1007C000358724870F90DF91CF910895CE01019650
:1007D0000E943301019719F4898190E0F3CF8FEFE4
:1007E0009FEFF0CF0F931F93CF93DF931F92CDB75F
:1007F000DEB78C01FC018485958597FF0BC0CE0187
:1008000001960E943301019771F4898190E0F8010B
:1008100095878487F801848595850F90DF91CF9126
:100820001F910F9108958FEF9FEFF1CFFC01848509
:10083000958597FD0BC09FB7F89482E08093E900FF
:100840008091F2009FBF90E0019608959FB7F894C1
:1008500082E08093E9008091F2009FBF90E00895CC
:10086000CF92DF92EF92FF920F931F93CF93DF937C
:10087000EC016A017B0120E030E048EC52E4CB015E
:10088000B6010E941F0B1816ACF120E030E0A90160
:10089000C701B6010E94C00987FF03C0C12CD12C3B
:1008A000760120E030E04FE753E4C701B6010E9433
:1008B000240B20E030E048EC52E40E94C5090E947D
:1008C000370A6B018B017D836C830A80DB81C02D2D
:1008D0008C2F0E941401C114D10499F460E08C2F74
:1008E000DF91CF911F910F91FF90EF90DF90CF900C
:1008F0000C948201C12CD12C88ECE82E82E4F82ED5
:10090000D0CF0F3F110511F461E0E9CFFE01FF27C1
:10091000E75AFE4FE491E150EF3008F084C0F0E078
:10092000EC56FB4F0C94910BA304B004B504BF0428
:10093000C904130513051305D304DD04E704F1040A
:10094000FE041305060584B5806884BDC7BCDF912D
:10095000CF911F910F91FF90EF90DF90CF9008956E
:1009600084B5806284BDC8BCF2CF8091800080686D
:1009700080938000D0928900C0928800E8CF809157
:100980008000806280938000D0928B00C0928A00A9
:10099000DECF80918000886080938000D0928D00AF
:1009A000C0928C00D4CF809190008068809390009A
:1009B000D0929900C0929800CACF80919000806236
:1009C00080939000D0929B00C0929A00C0CF8091FB
:1009D0009000886080939000D0929D00C0929C000F
:1009E000B6CF8091C00080688093C0008091C00025
:1009F0008F7B8093C000C092CF00A9CF8091C000B0
:100A000080628093C000C092D000A1CF8091C200CC
:100A100088608093C2008091C2008B7F8093C20067
:100A2000C092D20094CF003811050CF06DCF56CF94
:100A3000CF93DF93EC018A810E94140182E390E05E
:100A40009D838C8340E050E068E472E4CE010E9414
:100A5000300481E0DF91CF910895CF92DF92EF9241
:100A6000FF92CF93DF93EC016A017B0120E030E03D
:100A700048EC52E4CB01B6010E941F0B18165CF142
:100A800020E030E0A901C701B6010E94C00987FF3C
:100A900003C0C12CD12C760120E030E040EA53E4C1
:100AA000C701B6010E94240B20E030E048EC52E47C
:100AB0000E94C5090E94370A2A813B8129303105ED
:100AC00089F02A30310599F0DF91CF91FF90EF90B6
:100AD000DF90CF900895C12CD12C88ECE82E82E4D1
:100AE000F82EDACF7093890060938800EDCF709371
:100AF0008B0060938A00E8CFCF93DF93FC012281C3
:100B00003381295031092230310518F5EC0110925A
:100B1000800010928100109285001092840082EA79
:100B20008093800081E18093810080E491E0909344
:100B300087008093860082810E94140140E050E08B
:100B400068E472E4CE010E942D0581E0DF91CF912F
:100B5000089580E0FBCF0E94970B1F920F920FB673
:100B60000F9211242F933F938F939F93AF93BF9333
:100B700080913B0190913C01A0913D01B0913E01DB
:100B800030913A0123E0230F2D3758F50196A11D2E
:100B9000B11D20933A0180933B0190933C01A093B7
:100BA0003D01B0933E0180913F0190914001A091A1
:100BB0004101B09142010196A11DB11D80933F01F9
:100BC00090934001A0934101B0934201BF91AF9136
:100BD0009F918F913F912F910F900FBE0F901F907B
:100BE000189526E8230F0296A11DB11DD2CF1F92A2
:100BF0000F920FB60F9211248F939F938091E10073
:100C00009091E100937F9093E10083FF0FC01092D9
:100C1000E90091E09093EB001092EC0092E3909346
:100C2000ED001092500198E09093F00082FF22C0F6
:100C300093E09093E9009091F200992319F09AE3E0
:100C40009093E80090913901992341F090913901F6
:100C5000915090933901911101C05D9A90914F018B
:100C6000992341F090914F01915090934F01911130
:100C700001C0289A84FF18C08091E2008E7E8160B6
:100C80008093E2008091E1008F7E8093E10080916B
:100C900038018E7E8061809338019F918F910F90F3
:100CA0000FBE0F901F90189580FFF7CF8091E20044
:100CB0008E7E80618093E2008091E1008E7E809341
:100CC000E100809138018E7E8160E5CF1F920F9206
:100CD0000FB60F921124CF92DF92EF92FF920F93F3
:100CE0001F932F933F934F935F936F937F938F93B4
:100CF0009F93AF93BF93EF93FF93CF93DF93CDB7C2
:100D0000DEB76C97DEBFCDBF1092E9008091E8009E
:100D100083FF25C068E0CE0145960E94020382EF62
:100D20008093E8008D8987FF39C09091E80090FF9B
:100D3000FCCF982F907609F034C19E894F89588D49
:100D40002F89F88C911131C0803861F5809137017D
:100D50008093F1001092F1008EEF8093E8006C9682
:100D60000FB6F894DEBF0FBECDBFDF91CF91FF91DC
:100D7000EF91BF91AF919F918F917F916F915F9113
:100D80004F913F912F911F910F91FF90EF90DF9026
:100D9000CF900F900FBE0F901F9018959EEF9093DD
:100DA000E800C7CF1092F100D5CF913059F48111EE
:100DB000D3CF4130510581F6809137018D7F8093EB
:100DC0003701CACF933049F48111C6CF4130510564
:100DD00019F6809137018260F2CF953041F480910D
:100DE000E80080FFFCCF20682093E300B5CF963069
:100DF00009F0A9C00B8D1C8D22E01092E900109221
:100E0000350110923401F2122EC01092330110926B
:100E100032010E94D1021F8299E09983FA8291E007
:100E20009E8390EA98879AEF9987209134013091B8
:100E30003501275F3F4F3C832B838D831092E90060
:100E40001092350110923401109333010093320156
:100E500049E050E0BE016F5F7F4F80E00E94AB022F
:100E60000E94D10279CF10933301009332010E9486
:100E70006E01DC0112960D911C910115110509F40A
:100E800051C1D801ED91FC910480F581E02DBE01A6
:100E90006B5E7F4FC8010995009709F03EC1F801CC
:100EA00000851185EACFF3E0FF120EC08F898823F9
:100EB00009F440C0823061F440E86BE08DE491E0D9
:100EC0000E947802811148CF81E28093EB0047CFE6
:100ED000813029F440E86BE081E491E0F1CF833088
:100EE00099F70E946E01DC011296ED90FC908E0144
:100EF0000F5F1F4F6801E114F10479F0D701ED9104
:100F0000FC910680F781E02DB801C7010995080F13
:100F1000111DF701E084F184EECFD8011C92F60197
:100F200001900020E9F73197BF016C197D0940E07D
:100F3000C601C6CF6BE271E0FB01449150E080E84E
:100F40000E94AB0209CF973009F4BECF983021F44C
:100F500081E08093F10000CF993009F0FDCE8370DD
:100F600009F0B2CFEDE0F1E081E031E096E32191CC
:100F7000222371F08093E9003093EB00DF01119799
:100F80002C912093EC009093ED008F5F873079F7E0
:100F90008EE78093EA001092EA008F8980935001D7
:100FA000DBCE8B8D9C8D1092E90010923501109252
:100FB00034019093330180933201898D811192C065
:100FC0008E899D89913A49F4813209F07DCF47E0BD
:100FD00050E064E071E080E0B3CF913209F074CF6B
:100FE000833269F48F89988DB0E0A0E0809300018E
:100FF00090930101A0930201B0930301ADCE803222
:1010000069F48091E80082FFFCCF67E084E091E022
:101010000E9402038BEF8093E8009ECE823209F09B
:101020009BCE8F8980930B01EEEFFFE78591949122
:101030008B3F9C4D51F1E0E0F8E0809104019091EC
:101040000501A0910601B0910701803B9440A105E4
:10105000B105F1F480910B0180FD1AC0EE3F8AE0EA
:10106000F80789F587E797E791838083809160008F
:101070008093360188E19BE00FB6F894A8958093A1
:1010800060000FBE9093600067CEEEEFFAE0D5CF20
:10109000808191818737974709F05ECEA89580912E
:1010A00060008861809360008091360180936000C9
:1010B000EE3F2AE0F20789F08091FE0A9091FF0A44
:1010C0009183808349CE808191818737980751F23F
:1010D0009093FF0A8093FE0AC5CF1092FF0A1092E8
:1010E000FE0A3ACE0E946E01DC0112960D911C910F
:1010F0000115110509F4E8CED801ED91FC9101909C
:10110000F081E02DBE016B5E7F4FC8010995811112
:1011100023CEF80100851185EBCF181619060CF4C3
:101120001BCED2CEF1E0FF12BECE6FE271E004CF53
:10113000E1E5F1E01382128288EE93E0A0E0B0E0F6
:1011400084839583A683B78387E191E0918380832D
:101150008FEF9FEF95878487E5EAF1E083E090E0E9
:10116000938382838FE291E091838083E1EAF1E0CF
:1011700089E090E09383828389E291E09183808388
:101180000895789484B5826084BD84B5816084BDFF
:1011900085B5826085BD85B5816085BD80916E0015
:1011A000816080936E001092810080918100826046
:1011B0008093810080918100816080938100809183
:1011C0008000816080938000809191008260809394
:1011D00091008091910081608093910080919000B6
:1011E0008160809390008091C10084608093C100F1
:1011F0008091C10082608093C1008091C1008160B4
:101200008093C1008091C30081608093C30080916E
:10121000C00082608093C0008091C2008160809392
:10122000C20080917A00846080937A0080917A0075
:10123000826080937A0080917A00816080937A0046
:1012400080917A00806880937A0010925001109209
:101250003701109238018091D70081608093D700C8
:1012600080EA8093D80089B5806189BD89B58260A4
:1012700089BD09B400FEFDCF61E070E080E090E040
:101280000E9418028091D8008F7C80618093D800E2
:101290008091E000807F8093E0008091E1008E7E6D
:1012A0008093E1008DE08093E200559A209A8FEFC1
:1012B0009FEF90935E0180935D018EED90E00E9420
:1012C000AA0385EA91E00E94180581110DC088ECFF
:1012D00090E00E94AA0360ED77E080E090E00E9439
:1012E0001802F0E0E0E0099540E050E068E472E4C4
:1012F00085EA91E00E94300481EA91E00E947C0539
:1013000081110DC08CEA90E00E94AA0360ED77E0A5
:1013100080E090E00E941802F0E0E0E0099540E0F3
:1013200050E068E472E481EA91E00E942D0500E05B
:1013300010E0C1E0D0E0BE010D2E000C880B990B2F
:101340000E946F0A6B017C01BC01A60185EA91E055
:101350000E943004B701A60181EA91E00E942D05A8
:1013600069E170E080E090E00E9418022196C436A6
:10137000D10509F701151105E1F20E940000D9CF4E
:101380000E94AA0A08F481E008950E94D9090C94E9
:10139000E50A0E94DE0A58F00E94D70A40F029F4BC
:1013A0005F3F29F00C94CE0A51110C94190B0C9448
:1013B000D40A0E94F60A68F39923B1F3552391F3F6
:1013C000951B550BBB27AA2762177307840738F0B4
:1013D0009F5F5F4F220F331F441FAA1FA9F335D011
:1013E0000E2E3AF0E0E832D091505040E695001CC5
:1013F000CAF72BD0FE2F29D0660F771F881FBB1F7F
:10140000261737074807AB07B0E809F0BB0B802D5C
:10141000BF01FF2793585F4F3AF09E3F510578F088
:101420000C94CE0A0C94190B5F3FE4F3983ED4F36E
:10143000869577956795B795F7959F5FC9F7880F5C
:10144000911D9695879597F90895E1E0660F771FAE
:10145000881FBB1F621773078407BA0720F0621B3F
:10146000730B840BBA0BEE1F88F7E09508950E946A
:101470003E0A6894B1110C94190B08950E94FE0A5B
:1014800088F09F5798F0B92F9927B751B0F0E1F045
:10149000660F771F881F991F1AF0BA95C9F714C0F5
:1014A000B13091F00E94180BB1E008950C94180B24
:1014B000672F782F8827B85F39F0B93FCCF386952E
:1014C00077956795B395D9F73EF49095809570958B
:1014D00061957F4F8F4F9F4F0895E89409C097FB08
:1014E0003EF490958095709561957F4F8F4F9F4FFB
:1014F0009923A9F0F92F96E9BB279395F69587953F
:1015000077956795B795F111F8CFFAF4BB0F11F401
:1015100060FF1BC06F5F7F4F8F4F9F4F16C08823A8
:1015200011F096E911C0772321F09EE8872F762FDE
:1015300005C0662371F096E8862F70E060E02AF01F
:101540009A95660F771F881FDAF7880F969587950B
:1015500097F90895990F0008550FAA0BE0E8FEEFE0
:1015600016161706E807F907C0F012161306E40767
:10157000F50798F0621B730B840B950B39F40A2660
:1015800061F0232B242B252B21F408950A2609F43E
:10159000A140A6958FEF811D811D089597F99F6742
:1015A00080E870E060E008959FEF80EC08950024EB
:1015B0000A941616170618060906089500240A94B8
:1015C00012161306140605060895092E0394000C3E
:1015D00011F4882352F0BB0F40F4BF2B11F460FFCD
:1015E00004C06F5F7F4F8F4F9F4F089557FD9058F6
:1015F000440F551F59F05F3F71F04795880F97FBD7
:10160000991F61F09F3F79F0879508951216130690
:101610001406551FF2CF4695F1DF08C016161706BF
:101620001806991FF1CF86957105610508940895F4
:10163000E894BB2766277727CB0197F908950E9486
:10164000AA0A08F48FEF08950E94370B0C94E50A5C
:101650000E94D70A38F00E94DE0A20F0952311F08C
:101660000C94CE0A0C94D40A11240C94190B0E94E9
:10167000F60A70F3959FC1F3950F50E0551F629FD6
:10168000F001729FBB27F00DB11D639FAA27F00DDB
:10169000B11DAA1F649F6627B00DA11D661F829F02
:1016A0002227B00DA11D621F739FB00DA11D621FE7
:1016B000839FA00D611D221F749F3327A00D611D04
:1016C000231F849F600D211D822F762F6A2F1124E6
:1016D0009F5750409AF0F1F088234AF0EE0FFF1F19
:1016E000BB1F661F771F881F91505040A9F79E3F70
:1016F000510580F00C94CE0A0C94190B5F3FE4F373
:10170000983ED4F3869577956795B795F795E795C5
:101710009F5FC1F7FE2B880F911D9695879597F9CE
:101720000895EE0FFF1F0590F491E02D099481E0DC
:0C17300090E0F8940C949C0BF894FFCF10
:10173C00FFFFFFFF00E100000000000000C18081FE
:10174C000000000000000094030F03D003C5031633
:10175C0004D403F203000000007C05000000001814
:02176C00050076
:00000001FF
